{
  "address": "0xAf2b3F90961B065CD0Ca1752e6A99204Dc489020",
  "abi": [
    {
      "inputs": [],
      "name": "HandlesAlreadySavedForRequestID",
      "type": "error"
    },
    {
      "anonymous": false,
      "inputs": [
        {
          "indexed": true,
          "internalType": "uint256",
          "name": "surveyId",
          "type": "uint256"
        },
        {
          "indexed": false,
          "internalType": "uint256",
          "name": "requestId",
          "type": "uint256"
        }
      ],
      "name": "FinalizeRequested",
      "type": "event"
    },
    {
      "anonymous": false,
      "inputs": [
        {
          "indexed": true,
          "internalType": "uint256",
          "name": "surveyId",
          "type": "uint256"
        },
        {
          "indexed": true,
          "internalType": "address",
          "name": "user",
          "type": "address"
        }
      ],
      "name": "RatingSubmitted",
      "type": "event"
    },
    {
      "anonymous": false,
      "inputs": [
        {
          "indexed": true,
          "internalType": "uint256",
          "name": "surveyId",
          "type": "uint256"
        },
        {
          "indexed": false,
          "internalType": "string",
          "name": "title",
          "type": "string"
        },
        {
          "indexed": true,
          "internalType": "address",
          "name": "admin",
          "type": "address"
        }
      ],
      "name": "SurveyCreated",
      "type": "event"
    },
    {
      "anonymous": false,
      "inputs": [
        {
          "indexed": true,
          "internalType": "uint256",
          "name": "surveyId",
          "type": "uint256"
        }
      ],
      "name": "SurveyEnded",
      "type": "event"
    },
    {
      "anonymous": false,
      "inputs": [
        {
          "indexed": true,
          "internalType": "uint256",
          "name": "surveyId",
          "type": "uint256"
        },
        {
          "indexed": false,
          "internalType": "uint256",
          "name": "productIndex",
          "type": "uint256"
        },
        {
          "indexed": false,
          "internalType": "uint256",
          "name": "decryptedSum",
          "type": "uint256"
        }
      ],
      "name": "SurveyFinalized",
      "type": "event"
    },
    {
      "inputs": [
        {
          "internalType": "string",
          "name": "_title",
          "type": "string"
        },
        {
          "internalType": "string",
          "name": "_description",
          "type": "string"
        },
        {
          "internalType": "string[]",
          "name": "_productNames",
          "type": "string[]"
        },
        {
          "internalType": "uint256",
          "name": "_durationInHours",
          "type": "uint256"
        }
      ],
      "name": "createSurvey",
      "outputs": [
        {
          "internalType": "uint256",
          "name": "",
          "type": "uint256"
        }
      ],
      "stateMutability": "nonpayable",
      "type": "function"
    },
    {
      "inputs": [
        {
          "internalType": "uint256",
          "name": "requestId",
          "type": "uint256"
        },
        {
          "internalType": "bytes",
          "name": "cleartexts",
          "type": "bytes"
        },
        {
          "internalType": "bytes[]",
          "name": "",
          "type": "bytes[]"
        }
      ],
      "name": "decryptionCallback",
      "outputs": [
        {
          "internalType": "bool",
          "name": "",
          "type": "bool"
        }
      ],
      "stateMutability": "nonpayable",
      "type": "function"
    },
    {
      "inputs": [
        {
          "internalType": "uint256",
          "name": "_surveyId",
          "type": "uint256"
        }
      ],
      "name": "endSurvey",
      "outputs": [],
      "stateMutability": "nonpayable",
      "type": "function"
    },
    {
      "inputs": [
        {
          "internalType": "uint256",
          "name": "_surveyId",
          "type": "uint256"
        },
        {
          "internalType": "uint256",
          "name": "_productIndex",
          "type": "uint256"
        }
      ],
      "name": "finalizeProduct",
      "outputs": [],
      "stateMutability": "nonpayable",
      "type": "function"
    },
    {
      "inputs": [
        {
          "internalType": "uint256",
          "name": "_surveyId",
          "type": "uint256"
        },
        {
          "internalType": "uint256",
          "name": "_productIndex",
          "type": "uint256"
        }
      ],
      "name": "getDecryptedSum",
      "outputs": [
        {
          "internalType": "uint32",
          "name": "",
          "type": "uint32"
        }
      ],
      "stateMutability": "view",
      "type": "function"
    },
    {
      "inputs": [
        {
          "internalType": "uint256",
          "name": "_surveyId",
          "type": "uint256"
        },
        {
          "internalType": "uint256",
          "name": "_productIndex",
          "type": "uint256"
        }
      ],
      "name": "getEncryptedSum",
      "outputs": [
        {
          "internalType": "euint32",
          "name": "",
          "type": "bytes32"
        }
      ],
      "stateMutability": "view",
      "type": "function"
    },
    {
      "inputs": [
        {
          "internalType": "uint256",
          "name": "_surveyId",
          "type": "uint256"
        }
      ],
      "name": "getSurvey",
      "outputs": [
        {
          "internalType": "string",
          "name": "title",
          "type": "string"
        },
        {
          "internalType": "string",
          "name": "description",
          "type": "string"
        },
        {
          "internalType": "uint256",
          "name": "productCount",
          "type": "uint256"
        },
        {
          "internalType": "string[]",
          "name": "productNames",
          "type": "string[]"
        },
        {
          "internalType": "uint256",
          "name": "endTime",
          "type": "uint256"
        },
        {
          "internalType": "bool",
          "name": "isActive",
          "type": "bool"
        },
        {
          "internalType": "bool",
          "name": "isFinalized",
          "type": "bool"
        },
        {
          "internalType": "address",
          "name": "admin",
          "type": "address"
        },
        {
          "internalType": "uint256",
          "name": "totalResponses",
          "type": "uint256"
        }
      ],
      "stateMutability": "view",
      "type": "function"
    },
    {
      "inputs": [],
      "name": "getSurveyCount",
      "outputs": [
        {
          "internalType": "uint256",
          "name": "",
          "type": "uint256"
        }
      ],
      "stateMutability": "view",
      "type": "function"
    },
    {
      "inputs": [
        {
          "internalType": "uint256",
          "name": "",
          "type": "uint256"
        },
        {
          "internalType": "address",
          "name": "",
          "type": "address"
        }
      ],
      "name": "hasSubmitted",
      "outputs": [
        {
          "internalType": "bool",
          "name": "",
          "type": "bool"
        }
      ],
      "stateMutability": "view",
      "type": "function"
    },
    {
      "inputs": [
        {
          "internalType": "uint256",
          "name": "_surveyId",
          "type": "uint256"
        },
        {
          "internalType": "address",
          "name": "_user",
          "type": "address"
        }
      ],
      "name": "hasUserSubmitted",
      "outputs": [
        {
          "internalType": "bool",
          "name": "",
          "type": "bool"
        }
      ],
      "stateMutability": "view",
      "type": "function"
    },
    {
      "inputs": [
        {
          "internalType": "uint256",
          "name": "_surveyId",
          "type": "uint256"
        }
      ],
      "name": "isSurveyFullyFinalized",
      "outputs": [
        {
          "internalType": "bool",
          "name": "",
          "type": "bool"
        }
      ],
      "stateMutability": "view",
      "type": "function"
    },
    {
      "inputs": [
        {
          "internalType": "uint256",
          "name": "_surveyId",
          "type": "uint256"
        }
      ],
      "name": "markSurveyFullyFinalized",
      "outputs": [],
      "stateMutability": "nonpayable",
      "type": "function"
    },
    {
      "inputs": [],
      "name": "protocolId",
      "outputs": [
        {
          "internalType": "uint256",
          "name": "",
          "type": "uint256"
        }
      ],
      "stateMutability": "pure",
      "type": "function"
    },
    {
      "inputs": [
        {
          "internalType": "uint256",
          "name": "_surveyId",
          "type": "uint256"
        },
        {
          "internalType": "externalEuint32[]",
          "name": "_encryptedRatings",
          "type": "bytes32[]"
        },
        {
          "internalType": "bytes[]",
          "name": "inputProofs",
          "type": "bytes[]"
        }
      ],
      "name": "submitRatings",
      "outputs": [],
      "stateMutability": "nonpayable",
      "type": "function"
    },
    {
      "inputs": [
        {
          "internalType": "uint256",
          "name": "",
          "type": "uint256"
        }
      ],
      "name": "surveys",
      "outputs": [
        {
          "internalType": "string",
          "name": "title",
          "type": "string"
        },
        {
          "internalType": "string",
          "name": "description",
          "type": "string"
        },
        {
          "internalType": "uint256",
          "name": "productCount",
          "type": "uint256"
        },
        {
          "internalType": "uint256",
          "name": "endTime",
          "type": "uint256"
        },
        {
          "internalType": "bool",
          "name": "isActive",
          "type": "bool"
        },
        {
          "internalType": "bool",
          "name": "isFinalized",
          "type": "bool"
        },
        {
          "internalType": "address",
          "name": "admin",
          "type": "address"
        },
        {
          "internalType": "uint256",
          "name": "totalResponses",
          "type": "uint256"
        }
      ],
      "stateMutability": "view",
      "type": "function"
    }
  ],
  "transactionHash": "0xed6035b78c4b50a61147b815cf9ae5c5eb2baa671c905fb50cde69c21adaf040",
  "args": [],
  "numDeployments": 1,
  "solcInputHash": "25830372c309d28d7d4830bc8cca9aee",
  "bytecode": "0x608060405234801561000f575f80fd5b5061018a6100ae604080516080810182525f808252602082018190529181018290526060810191909152506040805160808101825273687820221192c5b662b25367f70076a37bc79b6c815273848b0066793bcc60346da1f49049357399b8d595602082015273a02cda4ca3a71d7c46997716f4283aa851c2881291810191909152731364cbbf2cdf5032c47d8226a6f6fbd2afcdacac606082015290565b80517f9e7b61f58c47dc699ac88507c4f5bb9f121c03808c5676a8078fe583e464970080546001600160a01b03199081166001600160a01b039384161790915560208301517f9e7b61f58c47dc699ac88507c4f5bb9f121c03808c5676a8078fe583e46497018054831691841691909117905560408301517f9e7b61f58c47dc699ac88507c4f5bb9f121c03808c5676a8078fe583e46497028054831691841691909117905560608301517f9e7b61f58c47dc699ac88507c4f5bb9f121c03808c5676a8078fe583e46497038054909216921691909117905550565b6126f6806101975f395ff3fe608060405234801561000f575f80fd5b50600436106100f0575f3560e01c806389670e1511610093578063be279e5711610063578063be279e5714610236578063c7dc3e7b14610249578063da1f12ab1461025c578063dbc05f3b14610264575f80fd5b806389670e15146101c75780639fe140b1146101ef578063a57d3806146101f6578063a6c6723314610223575f80fd5b806333fe47aa116100ce57806333fe47aa146101505780634a67faaa146101785780634deedd161461018b57806386e68b90146101a0575f80fd5b80630591a7a7146100f45780631e6f23121461011c57806323a521791461013d575b5f80fd5b610107610102366004611e8a565b610277565b60405190151581526020015b60405180910390f35b61012f61012a366004611f97565b6102a3565b604051908152602001610113565b61012f61014b366004612090565b6104aa565b61016361015e366004612090565b61059d565b60405163ffffffff9091168152602001610113565b6101076101863660046120b0565b6106e7565b61019e6101993660046121d0565b6108a6565b005b6101b36101ae366004612244565b610d88565b60405161011398979695949392919061229e565b6101da6101d5366004612244565b610ef8565b60405161011399989796959493929190612301565b5f5461012f565b610107610204366004611e8a565b600160209081525f928352604080842090915290825290205460ff1681565b61019e610231366004612244565b6111bb565b61019e610244366004612244565b61130d565b61019e610257366004612090565b611527565b61271161012f565b610107610272366004612244565b61175d565b5f8281526001602090815260408083206001600160a01b038516845290915290205460ff165b92915050565b5f6002835110156102fb5760405162461bcd60e51b815260206004820152601d60248201527f4d7573742068617665206174206c6561737420322070726f647563747300000060448201526064015b60405180910390fd5b60058351111561034d5760405162461bcd60e51b815260206004820181905260248201527f43616e6e6f742068617665206d6f7265207468616e20352070726f647563747360448201526064016102f2565b5f821161039c5760405162461bcd60e51b815260206004820152601f60248201527f4475726174696f6e206d7573742062652067726561746572207468616e20300060448201526064016102f2565b5f8054600181018255908052600a81027f290decd9548b62a8d60345a988386fc84ba6bc95484008f6362f93160ef3e56301806103d98882612444565b50600181016103e88782612444565b508451600382018190556104059060028301906020880190611d8b565b5061041284610e10612518565b61041c904261252f565b600482015560058101805461ffff191660011790556007810180547fffffffffffffffffffffffff000000000000000000000000000000000000000016339081179091555f600883015560405183907f1f09973e69cfdfbcc63b3cb3957b0c2b15c8ea34cbe98a0604a4214294c8386490610498908b90612542565b60405180910390a35095945050505050565b5f8054839081106104f55760405162461bcd60e51b815260206004820152601560248201527414dd5c9d995e48191bd95cc81b9bdd08195e1a5cdd605a1b60448201526064016102f2565b5f848154811061050757610507612554565b905f5260205f2090600a02016003015483106105655760405162461bcd60e51b815260206004820152601560248201527f496e76616c69642070726f6475637420696e646578000000000000000000000060448201526064016102f2565b5f848154811061057757610577612554565b5f91825260208083209583526006600a9092029095010190935250506040902054919050565b5f8054839081106105e85760405162461bcd60e51b815260206004820152601560248201527414dd5c9d995e48191bd95cc81b9bdd08195e1a5cdd605a1b60448201526064016102f2565b5f84815481106105fa576105fa612554565b905f5260205f2090600a02016003015483106106585760405162461bcd60e51b815260206004820152601560248201527f496e76616c69642070726f6475637420696e646578000000000000000000000060448201526064016102f2565b5f80858154811061066b5761066b612554565b5f91825260208083208784526009600a90930201919091019052604090205463ffffffff169050806106df5760405162461bcd60e51b815260206004820152601960248201527f50726f64756374206e6f742066696e616c697a6564207965740000000000000060448201526064016102f2565b949350505050565b5f8381526002602090815260408083205460039092528220548254839081908490811061071657610716612554565b5f91825260208083208584526009600a90930201918201905260409091205490915063ffffffff161561078b5760405162461bcd60e51b815260206004820152601960248201527f50726f6475637420616c72656164792066696e616c697a65640000000000000060448201526064016102f2565b600581015460ff16156107e05760405162461bcd60e51b815260206004820152601360248201527f537572766579207374696c6c206163746976650000000000000000000000000060448201526064016102f2565b6004865110156108325760405162461bcd60e51b815260206004820152601960248201527f496e76616c696420636c6561727465787473206c656e6774680000000000000060448201526064016102f2565b6020868101515f848152600984018352604090819020805463ffffffff191660e09390931c92831790558051858152928301829052909185917fabafe47ee15d83ca69055e3b727342734f6751f4a91277e03848743b9ad83e95910160405180910390a260019450505050505b9392505050565b5f54859081106108f05760405162461bcd60e51b815260206004820152601560248201527414dd5c9d995e48191bd95cc81b9bdd08195e1a5cdd605a1b60448201526064016102f2565b855f818154811061090357610903612554565b5f91825260209091206005600a90920201015460ff166109655760405162461bcd60e51b815260206004820152601460248201527f537572766579206973206e6f742061637469766500000000000000000000000060448201526064016102f2565b5f818154811061097757610977612554565b905f5260205f2090600a02016004015442106109d55760405162461bcd60e51b815260206004820152601060248201527f5375727665792068617320656e6465640000000000000000000000000000000060448201526064016102f2565b5f81815481106109e7576109e7612554565b905f5260205f2090600a020160050160019054906101000a900460ff1615610a515760405162461bcd60e51b815260206004820152601360248201527f5375727665792069732066696e616c697a65640000000000000000000000000060448201526064016102f2565b5f87815260016020908152604080832033845290915290205460ff1615610ae05760405162461bcd60e51b815260206004820152602960248201527f416c7265616479207375626d697474656420726174696e677320666f7220746860448201527f697320737572766579000000000000000000000000000000000000000000000060648201526084016102f2565b5f808881548110610af357610af3612554565b905f5260205f2090600a0201905080600301548787905014610b7d5760405162461bcd60e51b815260206004820152602a60248201527f4e756d626572206f6620726174696e6773206d757374206d617463682070726f60448201527f6475637420636f756e740000000000000000000000000000000000000000000060648201526084016102f2565b60038101548414610bf65760405162461bcd60e51b815260206004820152602960248201527f4e756d626572206f662070726f6f6673206d757374206d617463682070726f6460448201527f75637420636f756e74000000000000000000000000000000000000000000000060648201526084016102f2565b5f5b8160030154811015610d19575f610c7e898984818110610c1a57610c1a612554565b90506020020135888885818110610c3357610c33612554565b9050602002810190610c459190612568565b8080601f0160208091040260200160405190810160405280939291908181526020018383808284375f9201919091525061181292505050565b905082600801545f03610ca2575f8281526006840160205260409020819055610ccd565b5f828152600684016020526040902054610cbc908261181f565b5f8381526006850160205260409020555b5f828152600684016020526040902054610ce69061184d565b505f8281526006840160205260409020546007840154610d0f91906001600160a01b031661185c565b5050600101610bf8565b505f8881526001602081815260408084203385529091528220805460ff1916909117905560088201805491610d4d836125ab565b9091555050604051339089907f85e6082e26117371170cccf02d9efcc5978a525389741158188e67dd4489987e905f90a35050505050505050565b5f8181548110610d96575f80fd5b905f5260205f2090600a02015f91509050805f018054610db5906123c6565b80601f0160208091040260200160405190810160405280929190818152602001828054610de1906123c6565b8015610e2c5780601f10610e0357610100808354040283529160200191610e2c565b820191905f5260205f20905b815481529060010190602001808311610e0f57829003601f168201915b505050505090806001018054610e41906123c6565b80601f0160208091040260200160405190810160405280929190818152602001828054610e6d906123c6565b8015610eb85780601f10610e8f57610100808354040283529160200191610eb8565b820191905f5260205f20905b815481529060010190602001808311610e9b57829003601f168201915b50505060038401546004850154600586015460078701546008909701549596929591945060ff808216945061010090910416916001600160a01b03169088565b6060805f60605f805f805f895f805490508110610f4f5760405162461bcd60e51b815260206004820152601560248201527414dd5c9d995e48191bd95cc81b9bdd08195e1a5cdd605a1b60448201526064016102f2565b5f808c81548110610f6257610f62612554565b5f9182526020909120600a9091020160038101546004820154600583015460078401546008850154855495965086956001870195946002880194909360ff8083169461010090930416926001600160a01b0390911691908990610fc4906123c6565b80601f0160208091040260200160405190810160405280929190818152602001828054610ff0906123c6565b801561103b5780601f106110125761010080835404028352916020019161103b565b820191905f5260205f20905b81548152906001019060200180831161101e57829003601f168201915b5050505050985087805461104e906123c6565b80601f016020809104026020016040519081016040528092919081815260200182805461107a906123c6565b80156110c55780601f1061109c576101008083540402835291602001916110c5565b820191905f5260205f20905b8154815290600101906020018083116110a857829003601f168201915b5050505050975085805480602002602001604051908101604052809291908181526020015f905b82821015611194578382905f5260205f20018054611109906123c6565b80601f0160208091040260200160405190810160405280929190818152602001828054611135906123c6565b80156111805780601f1061115757610100808354040283529160200191611180565b820191905f5260205f20905b81548152906001019060200180831161116357829003601f168201915b5050505050815260200190600101906110ec565b5050505095509a509a509a509a509a509a509a509a509a5050509193959799909294969850565b5f54819081106112055760405162461bcd60e51b815260206004820152601560248201527414dd5c9d995e48191bd95cc81b9bdd08195e1a5cdd605a1b60448201526064016102f2565b5f80838154811061121857611218612554565b5f9182526020909120600a90910201600581015490915060ff1661127e5760405162461bcd60e51b815260206004820152601160248201527f537572766579206e6f742061637469766500000000000000000000000000000060448201526064016102f2565b80600401544210156112d25760405162461bcd60e51b815260206004820152601860248201527f53757276657920686173206e6f7420656e64656420796574000000000000000060448201526064016102f2565b60058101805460ff1916905560405183907f28bdfe7062db3f30e9304900753867d6ab654657ce5cf06cf84784955307dc9f905f90a2505050565b5f54819081106113575760405162461bcd60e51b815260206004820152601560248201527414dd5c9d995e48191bd95cc81b9bdd08195e1a5cdd605a1b60448201526064016102f2565b81336001600160a01b03165f828154811061137457611374612554565b5f91825260209091206007600a9092020101546001600160a01b0316146113e85760405162461bcd60e51b815260206004820152602260248201527f4f6e6c792061646d696e2063616e20706572666f726d2074686973206163746960448201526137b760f11b60648201526084016102f2565b5f8084815481106113fb576113fb612554565b905f5260205f2090600a020190508060050160019054906101000a900460ff16156114685760405162461bcd60e51b815260206004820152601860248201527f53757276657920616c72656164792066696e616c697a6564000000000000000060448201526064016102f2565b60405163dbc05f3b60e01b815260048101859052309063dbc05f3b90602401602060405180830381865afa1580156114a2573d5f803e3d5ffd5b505050506040513d601f19601f820116820180604052508101906114c691906125c3565b6115125760405162461bcd60e51b815260206004820152601e60248201527f4e6f7420616c6c2070726f6475637473206172652066696e616c697a6564000060448201526064016102f2565b600501805461ff001916610100179055505050565b5f54829081106115715760405162461bcd60e51b815260206004820152601560248201527414dd5c9d995e48191bd95cc81b9bdd08195e1a5cdd605a1b60448201526064016102f2565b5f80848154811061158457611584612554565b5f9182526020909120600a90910201600581015490915060ff16156115eb5760405162461bcd60e51b815260206004820152601360248201527f537572766579207374696c6c206163746976650000000000000000000000000060448201526064016102f2565b8060030154831061163e5760405162461bcd60e51b815260206004820152601560248201527f496e76616c69642070726f6475637420696e646578000000000000000000000060448201526064016102f2565b5f83815260098201602052604090205463ffffffff16156116a15760405162461bcd60e51b815260206004820152601960248201527f50726f6475637420616c72656164792066696e616c697a65640000000000000060448201526064016102f2565b6040805160018082528183019092525f9160208083019080368337019050505f858152600684016020526040902054909150815f815181106116e5576116e5612554565b60209081029190910101525f61170282632533fd5560e11b61186e565b5f8181526002602090815260408083208a90556003825291829020889055905182815291925087917f78b1c4f4a995ee0900557ab63afc39e57dcce05ef2e622329233c0a9f0f0ef5e910160405180910390a2505050505050565b5f8054829081106117a85760405162461bcd60e51b815260206004820152601560248201527414dd5c9d995e48191bd95cc81b9bdd08195e1a5cdd605a1b60448201526064016102f2565b5f8084815481106117bb576117bb612554565b905f5260205f2090600a020190505f5b8160030154811015611805575f81815260098301602052604081205463ffffffff1690036117fd575f9350505061180c565b6001016117cb565b5060019250505b50919050565b5f61089f8383600461187a565b5f826118315761182e5f61199a565b92505b816118425761183f5f61199a565b91505b61089f83835f6119ac565b5f6118588230611a8c565b5090565b5f6118678383611a8c565b5090919050565b5f61089f83835f611b15565b7f9e7b61f58c47dc699ac88507c4f5bb9f121c03808c5676a8078fe583e46497015460405163196d0b9b60e01b81525f917f9e7b61f58c47dc699ac88507c4f5bb9f121c03808c5676a8078fe583e4649700916001600160a01b039091169063196d0b9b906118f3908890339089908990600401612602565b6020604051808303815f875af115801561190f573d5f803e3d5ffd5b505050506040513d601f19601f820116820180604052508101906119339190612641565b8154604051630f8e573b60e21b8152600481018390523360248201529193506001600160a01b031690633e395cec906044015f604051808303815f87803b15801561197c575f80fd5b505af115801561198e573d5f803e3d5ffd5b50505050509392505050565b5f61029d8263ffffffff166004611c43565b5f8082156119bf5750600160f81b6119c2565b505f5b5f7f9e7b61f58c47dc699ac88507c4f5bb9f121c03808c5676a8078fe583e4649700600181015460405163022f65e760e31b815260048101899052602481018890527fff00000000000000000000000000000000000000000000000000000000000000851660448201529192506001600160a01b03169063117b2f38906064016020604051808303815f875af1158015611a5e573d5f803e3d5ffd5b505050506040513d601f19601f82011682018060405250810190611a829190612641565b9695505050505050565b5f7f9e7b61f58c47dc699ac88507c4f5bb9f121c03808c5676a8078fe583e46497008054604051635ca4b5b160e11b8152600481018690526001600160a01b03858116602483015292935091169063b9496b62906044015f604051808303815f87803b158015611afa575f80fd5b505af1158015611b0c573d5f803e3d5ffd5b50505050505050565b7f878245876662ba28a480c5ea71726db859fb50222b0a3d7cbbc21cfa336faf0080547f9e7b61f58c47dc699ac88507c4f5bb9f121c03808c5676a8078fe583e46497008054604051637d6e912360e11b81529293926001600160a01b039091169063fadd224690611b8b908990600401612692565b5f604051808303815f87803b158015611ba2575f80fd5b505af1158015611bb4573d5f803e3d5ffd5b5050506002820154604051633263b83b60e01b81526001600160a01b039091169150633263b83b908690611bf09087908b908b906004016126a4565b5f604051808303818588803b158015611c07575f80fd5b505af1158015611c19573d5f803e3d5ffd5b5050505050611c288387611cf8565b8154825f611c35836125ab565b919050555050509392505050565b7f9e7b61f58c47dc699ac88507c4f5bb9f121c03808c5676a8078fe583e464970154604051639cd07acb60e01b81525f917f9e7b61f58c47dc699ac88507c4f5bb9f121c03808c5676a8078fe583e4649700916001600160a01b0390911690639cd07acb90611cb890879087906004016126d5565b6020604051808303815f875af1158015611cd4573d5f803e3d5ffd5b505050506040513d601f19601f820116820180604052508101906106df9190612641565b5f8281527f878245876662ba28a480c5ea71726db859fb50222b0a3d7cbbc21cfa336faf0160205260409020547f878245876662ba28a480c5ea71726db859fb50222b0a3d7cbbc21cfa336faf009015611d6557604051633f06d22b60e01b815260040160405180910390fd5b5f83815260018201602090815260409091208351611d8592850190611ddb565b50505050565b828054828255905f5260205f20908101928215611dcf579160200282015b82811115611dcf5782518290611dbf9082612444565b5091602001919060010190611da9565b50611858929150611e20565b828054828255905f5260205f20908101928215611e14579160200282015b82811115611e14578251825591602001919060010190611df9565b50611858929150611e3c565b80821115611858575f611e338282611e50565b50600101611e20565b5b80821115611858575f8155600101611e3d565b508054611e5c906123c6565b5f825580601f10611e6b575050565b601f0160209004905f5260205f2090810190611e879190611e3c565b50565b5f8060408385031215611e9b575f80fd5b8235915060208301356001600160a01b0381168114611eb8575f80fd5b809150509250929050565b634e487b7160e01b5f52604160045260245ffd5b604051601f8201601f1916810167ffffffffffffffff81118282101715611f0057611f00611ec3565b604052919050565b5f82601f830112611f17575f80fd5b813567ffffffffffffffff811115611f3157611f31611ec3565b611f44601f8201601f1916602001611ed7565b818152846020838601011115611f58575f80fd5b816020850160208301375f918101602001919091529392505050565b5f67ffffffffffffffff821115611f8d57611f8d611ec3565b5060051b60200190565b5f805f8060808587031215611faa575f80fd5b843567ffffffffffffffff80821115611fc1575f80fd5b611fcd88838901611f08565b9550602091508187013581811115611fe3575f80fd5b611fef89828a01611f08565b955050604087013581811115612003575f80fd5b8701601f81018913612013575f80fd5b803561202661202182611f74565b611ed7565b81815260059190911b8201840190848101908b831115612044575f80fd5b8584015b8381101561207a5780358681111561205e575f80fd5b61206c8e8983890101611f08565b845250918601918601612048565b50989b979a509798606001359750505050505050565b5f80604083850312156120a1575f80fd5b50508035926020909101359150565b5f805f606084860312156120c2575f80fd5b8335925060208085013567ffffffffffffffff808211156120e1575f80fd5b6120ed88838901611f08565b94506040870135915080821115612102575f80fd5b818701915087601f830112612115575f80fd5b813561212361202182611f74565b81815260059190911b8301840190848101908a831115612141575f80fd5b8585015b838110156121775780358581111561215b575f80fd5b6121698d89838a0101611f08565b845250918601918601612145565b508096505050505050509250925092565b5f8083601f840112612198575f80fd5b50813567ffffffffffffffff8111156121af575f80fd5b6020830191508360208260051b85010111156121c9575f80fd5b9250929050565b5f805f805f606086880312156121e4575f80fd5b85359450602086013567ffffffffffffffff80821115612202575f80fd5b61220e89838a01612188565b90965094506040880135915080821115612226575f80fd5b5061223388828901612188565b969995985093965092949392505050565b5f60208284031215612254575f80fd5b5035919050565b5f81518084525f5b8181101561227f57602081850181015186830182015201612263565b505f602082860101526020601f19601f83011685010191505092915050565b5f6101008083526122b18184018c61225b565b905082810360208401526122c5818b61225b565b604084019990995250506060810195909552921515608085015290151560a08401526001600160a01b031660c083015260e09091015292915050565b5f6101208083526123148184018d61225b565b9050602083820381850152612329828d61225b565b91508a60408501528382036060850152818a518084528284019150828160051b850101838d015f5b8381101561237f57601f1987840301855261236d83835161225b565b94860194925090850190600101612351565b5050608087018c90528a151560a0880152945061239c9350505050565b93151560c08201526001600160a01b039290921660e0830152610100909101529695505050505050565b600181811c908216806123da57607f821691505b60208210810361180c57634e487b7160e01b5f52602260045260245ffd5b601f82111561243f57805f5260205f20601f840160051c8101602085101561241d5750805b601f840160051c820191505b8181101561243c575f8155600101612429565b50505b505050565b815167ffffffffffffffff81111561245e5761245e611ec3565b6124728161246c84546123c6565b846123f8565b602080601f8311600181146124a5575f841561248e5750858301515b5f19600386901b1c1916600185901b1785556124fc565b5f85815260208120601f198616915b828110156124d3578886015182559484019460019091019084016124b4565b50858210156124f057878501515f19600388901b60f8161c191681555b505060018460011b0185555b505050505050565b634e487b7160e01b5f52601160045260245ffd5b808202811582820484141761029d5761029d612504565b8082018082111561029d5761029d612504565b602081525f61089f602083018461225b565b634e487b7160e01b5f52603260045260245ffd5b5f808335601e1984360301811261257d575f80fd5b83018035915067ffffffffffffffff821115612597575f80fd5b6020019150368190038213156121c9575f80fd5b5f600182016125bc576125bc612504565b5060010190565b5f602082840312156125d3575f80fd5b8151801515811461089f575f80fd5b605481106125fe57634e487b7160e01b5f52602160045260245ffd5b9052565b8481526001600160a01b0384166020820152608060408201525f612629608083018561225b565b905061263860608301846125e2565b95945050505050565b5f60208284031215612651575f80fd5b5051919050565b5f815180845260208085019450602084015f5b838110156126875781518752958201959082019060010161266b565b509495945050505050565b602081525f61089f6020830184612658565b838152606060208201525f6126bc6060830185612658565b905063ffffffff60e01b83166040830152949350505050565b8281526040810161089f60208301846125e256fea164736f6c6343000818000a",
  "devdoc": {
    "details": "Scores are encrypted on-chain and only the admin can decrypt the final sum to calculate averages",
    "kind": "dev",
    "methods": {
      "createSurvey(string,string,string[],uint256)": {
        "params": {
          "_description": "The description of the survey",
          "_durationInHours": "Duration of the survey in hours",
          "_productNames": "Array of product names (A, B, C, etc.)",
          "_title": "The title of the survey"
        }
      },
      "decryptionCallback(uint256,bytes,bytes[])": {
        "details": "Expects the decrypted sum in bytes"
      },
      "endSurvey(uint256)": {
        "params": {
          "_surveyId": "The ID of the survey"
        }
      },
      "finalizeProduct(uint256,uint256)": {
        "params": {
          "_productIndex": "The index of the product to decrypt",
          "_surveyId": "The ID of the survey"
        }
      },
      "getDecryptedSum(uint256,uint256)": {
        "params": {
          "_productIndex": "The index of the product",
          "_surveyId": "The ID of the survey"
        }
      },
      "getEncryptedSum(uint256,uint256)": {
        "params": {
          "_productIndex": "The index of the product",
          "_surveyId": "The ID of the survey"
        },
        "returns": {
          "_0": "The encrypted sum of all ratings for this product"
        }
      },
      "getSurvey(uint256)": {
        "params": {
          "_surveyId": "The ID of the survey"
        }
      },
      "isSurveyFullyFinalized(uint256)": {
        "params": {
          "_surveyId": "The ID of the survey"
        }
      },
      "markSurveyFullyFinalized(uint256)": {
        "params": {
          "_surveyId": "The ID of the survey"
        }
      },
      "submitRatings(uint256,bytes32[],bytes[])": {
        "details": "Users encrypt their ratings (1-5) for each product before submission",
        "params": {
          "_encryptedRatings": "Array of encrypted ratings (1-5) for each product",
          "_surveyId": "The ID of the survey",
          "inputProofs": "Array of proofs for each encrypted input"
        }
      }
    },
    "title": "Product Satisfaction Survey Contract using FHE",
    "version": 1
  },
  "userdoc": {
    "errors": {
      "HandlesAlreadySavedForRequestID()": [
        {
          "notice": "Returned if some handles were already saved for corresponding ID."
        }
      ]
    },
    "kind": "user",
    "methods": {
      "createSurvey(string,string,string[],uint256)": {
        "notice": "Create a new survey"
      },
      "decryptionCallback(uint256,bytes,bytes[])": {
        "notice": "Callback called by the FHE decryption oracle"
      },
      "endSurvey(uint256)": {
        "notice": "End a survey (anyone can call after end time)"
      },
      "finalizeProduct(uint256,uint256)": {
        "notice": "Request decryption for a specific product and publish clear results"
      },
      "getDecryptedSum(uint256,uint256)": {
        "notice": "Get the decrypted sum for a specific product (only available after finalization)"
      },
      "getEncryptedSum(uint256,uint256)": {
        "notice": "Get the encrypted sum for a specific product (only admin can decrypt)"
      },
      "getSurvey(uint256)": {
        "notice": "Get survey details"
      },
      "getSurveyCount()": {
        "notice": "Get total number of surveys"
      },
      "hasUserSubmitted(uint256,address)": {
        "notice": "Check if a user has submitted ratings for a survey"
      },
      "isSurveyFullyFinalized(uint256)": {
        "notice": "Check if all products are finalized"
      },
      "markSurveyFullyFinalized(uint256)": {
        "notice": "Mark survey as fully finalized (only after all products are decrypted)"
      },
      "submitRatings(uint256,bytes32[],bytes[])": {
        "notice": "Submit encrypted ratings for all products"
      }
    },
    "notice": "An anonymous product satisfaction comparison system where users rate products (1-5) using encrypted scores",
    "version": 1
  },
  "storageLayout": {
    "storage": [
      {
        "astId": 39176,
        "contract": "contracts/ProductSatisfactionSurvey.sol:ProductSatisfactionSurvey",
        "label": "surveys",
        "offset": 0,
        "slot": "0",
        "type": "t_array(t_struct(Survey)39172_storage)dyn_storage"
      },
      {
        "astId": 39182,
        "contract": "contracts/ProductSatisfactionSurvey.sol:ProductSatisfactionSurvey",
        "label": "hasSubmitted",
        "offset": 0,
        "slot": "1",
        "type": "t_mapping(t_uint256,t_mapping(t_address,t_bool))"
      },
      {
        "astId": 39186,
        "contract": "contracts/ProductSatisfactionSurvey.sol:ProductSatisfactionSurvey",
        "label": "_requestToSurvey",
        "offset": 0,
        "slot": "2",
        "type": "t_mapping(t_uint256,t_uint256)"
      },
      {
        "astId": 39190,
        "contract": "contracts/ProductSatisfactionSurvey.sol:ProductSatisfactionSurvey",
        "label": "_requestToProductIndex",
        "offset": 0,
        "slot": "3",
        "type": "t_mapping(t_uint256,t_uint256)"
      }
    ],
    "types": {
      "t_address": {
        "encoding": "inplace",
        "label": "address",
        "numberOfBytes": "20"
      },
      "t_array(t_string_storage)dyn_storage": {
        "base": "t_string_storage",
        "encoding": "dynamic_array",
        "label": "string[]",
        "numberOfBytes": "32"
      },
      "t_array(t_struct(Survey)39172_storage)dyn_storage": {
        "base": "t_struct(Survey)39172_storage",
        "encoding": "dynamic_array",
        "label": "struct ProductSatisfactionSurvey.Survey[]",
        "numberOfBytes": "32"
      },
      "t_bool": {
        "encoding": "inplace",
        "label": "bool",
        "numberOfBytes": "1"
      },
      "t_mapping(t_address,t_bool)": {
        "encoding": "mapping",
        "key": "t_address",
        "label": "mapping(address => bool)",
        "numberOfBytes": "32",
        "value": "t_bool"
      },
      "t_mapping(t_uint256,t_mapping(t_address,t_bool))": {
        "encoding": "mapping",
        "key": "t_uint256",
        "label": "mapping(uint256 => mapping(address => bool))",
        "numberOfBytes": "32",
        "value": "t_mapping(t_address,t_bool)"
      },
      "t_mapping(t_uint256,t_uint256)": {
        "encoding": "mapping",
        "key": "t_uint256",
        "label": "mapping(uint256 => uint256)",
        "numberOfBytes": "32",
        "value": "t_uint256"
      },
      "t_mapping(t_uint256,t_uint32)": {
        "encoding": "mapping",
        "key": "t_uint256",
        "label": "mapping(uint256 => uint32)",
        "numberOfBytes": "32",
        "value": "t_uint32"
      },
      "t_mapping(t_uint256,t_userDefinedValueType(euint32)40030)": {
        "encoding": "mapping",
        "key": "t_uint256",
        "label": "mapping(uint256 => euint32)",
        "numberOfBytes": "32",
        "value": "t_userDefinedValueType(euint32)40030"
      },
      "t_string_storage": {
        "encoding": "bytes",
        "label": "string",
        "numberOfBytes": "32"
      },
      "t_struct(Survey)39172_storage": {
        "encoding": "inplace",
        "label": "struct ProductSatisfactionSurvey.Survey",
        "members": [
          {
            "astId": 39145,
            "contract": "contracts/ProductSatisfactionSurvey.sol:ProductSatisfactionSurvey",
            "label": "title",
            "offset": 0,
            "slot": "0",
            "type": "t_string_storage"
          },
          {
            "astId": 39147,
            "contract": "contracts/ProductSatisfactionSurvey.sol:ProductSatisfactionSurvey",
            "label": "description",
            "offset": 0,
            "slot": "1",
            "type": "t_string_storage"
          },
          {
            "astId": 39150,
            "contract": "contracts/ProductSatisfactionSurvey.sol:ProductSatisfactionSurvey",
            "label": "productNames",
            "offset": 0,
            "slot": "2",
            "type": "t_array(t_string_storage)dyn_storage"
          },
          {
            "astId": 39152,
            "contract": "contracts/ProductSatisfactionSurvey.sol:ProductSatisfactionSurvey",
            "label": "productCount",
            "offset": 0,
            "slot": "3",
            "type": "t_uint256"
          },
          {
            "astId": 39154,
            "contract": "contracts/ProductSatisfactionSurvey.sol:ProductSatisfactionSurvey",
            "label": "endTime",
            "offset": 0,
            "slot": "4",
            "type": "t_uint256"
          },
          {
            "astId": 39156,
            "contract": "contracts/ProductSatisfactionSurvey.sol:ProductSatisfactionSurvey",
            "label": "isActive",
            "offset": 0,
            "slot": "5",
            "type": "t_bool"
          },
          {
            "astId": 39158,
            "contract": "contracts/ProductSatisfactionSurvey.sol:ProductSatisfactionSurvey",
            "label": "isFinalized",
            "offset": 1,
            "slot": "5",
            "type": "t_bool"
          },
          {
            "astId": 39163,
            "contract": "contracts/ProductSatisfactionSurvey.sol:ProductSatisfactionSurvey",
            "label": "encryptedSums",
            "offset": 0,
            "slot": "6",
            "type": "t_mapping(t_uint256,t_userDefinedValueType(euint32)40030)"
          },
          {
            "astId": 39165,
            "contract": "contracts/ProductSatisfactionSurvey.sol:ProductSatisfactionSurvey",
            "label": "admin",
            "offset": 0,
            "slot": "7",
            "type": "t_address"
          },
          {
            "astId": 39167,
            "contract": "contracts/ProductSatisfactionSurvey.sol:ProductSatisfactionSurvey",
            "label": "totalResponses",
            "offset": 0,
            "slot": "8",
            "type": "t_uint256"
          },
          {
            "astId": 39171,
            "contract": "contracts/ProductSatisfactionSurvey.sol:ProductSatisfactionSurvey",
            "label": "decryptedSums",
            "offset": 0,
            "slot": "9",
            "type": "t_mapping(t_uint256,t_uint32)"
          }
        ],
        "numberOfBytes": "320"
      },
      "t_uint256": {
        "encoding": "inplace",
        "label": "uint256",
        "numberOfBytes": "32"
      },
      "t_uint32": {
        "encoding": "inplace",
        "label": "uint32",
        "numberOfBytes": "4"
      },
      "t_userDefinedValueType(euint32)40030": {
        "encoding": "inplace",
        "label": "euint32",
        "numberOfBytes": "32"
      }
    }
  }
}